:020000040800F2
:1000000088070020CD010008B314000897120008EB
:10001000B1140008D3020008BF1700080000000058
:10002000000000000000000000000000B7140008FD
:10003000D502000800000000B5140008B91400083B
:10004000E7010008E7010008E7010008E7010008F0
:10005000E7010008E7010008E7010008E7010008E0
:10006000E7010008E7010008E7010008E7010008D0
:10007000E7010008E7010008E7010008E7010008C0
:10008000E7010008E7010008E7010008E7010008B0
:10009000E7010008E7010008E7010008E7010008A0
:1000A000E7010008E7010008E7010008E701000890
:1000B0001D150008E7010008E7010008E701000836
:1000C000E7010008E7010008E7010008E701000870
:1000D000E7010008E7010008E7010008E701000860
:1000E000E7010008E7010008E7010008E701000850
:1000F000E7010008E7010008E7010008E701000840
:10010000E7010008E7010008E7010008E70100082F
:10011000E7010008E7010008E7010008E70100081F
:10012000E7010008E7010008E7010008E70100080F
:1001300000F002F800F03AF80AA090E8000C8244BF
:100140008344AAF10107DA4501D100F02FF8AFF29C
:10015000090EBAE80F0013F0010F18BFFB1A43F0A5
:10016000010318472C1B00004C1B0000103A24BF51
:1001700078C878C1FAD8520724BF30C830C144BF0C
:1001800004680C607047000000230024002500264E
:10019000103A28BF78C1FBD8520728BF30C148BFEA
:1001A0000B6070471FB51FBD10B510BD00F058F8AB
:1001B0001146FFF7F7FF01F013FB00F076F803B4E8
:1001C000FFF7F2FF03BC00F07DF80000094880470C
:1001D00009480047FEE7FEE7FEE7FEE7FEE7FEE729
:1001E000FEE7FEE7FEE7FEE704480549054A064B41
:1001F000704700001B15000831010008880100202D
:100200008807002088030020880300204FF00002A8
:1002100000B5134694469646203922BFA0E80C50FC
:10022000A0E80C50B1F12001BFF4F7AF090728BFD7
:10023000A0E80C5048BF0CC05DF804EB890028BF53
:1002400040F8042B08BF704748BF20F8022B11F07C
:10025000804F18BF00F8012B7047704770477047F8
:10026000754600F02BF8AE4605006946534620F06F
:100270000700854618B020B5FFF7B6FFBDE820405F
:100280004FF000064FF000074FF000084FF0000B52
:1002900021F00701AC46ACE8C009ACE8C009ACE805
:1002A000C009ACE8C0098D46704710B50446AFF3ED
:1002B00000802046BDE81040FFF781BF004870472E
:1002C0002401002001491820ABBEFEE726000200F1
:1002D0007047FEE7704772B6FEE700002DE9F84F61
:1002E000DFF8C8910024A9F1040B23460F2709F178
:1002F000040AABF1040ED1E00125A54006EA05028F
:10030000AA4276D1DFF8A8C14E68A6EB0C08664574
:100310002BD00DDC032E34D005DC36B3012E19D0E2
:10032000022E2FD11BE0112E16D0122E2AD119E049
:10033000B8F5881F19D006DCB8F5803F15D0B8F5A0
:10034000801F1FD111E0B8F5001F0ED0B8F5041FB3
:1003500018D10AE0CB6815E0CB681B1D12E0CB6812
:1003600008330FE0CB680C330CE08B682BB1012B0A
:100370004FF0080303D0456104E0042302E0056167
:1003800000E00023FF2A01D8064601E000F1040640
:100390004FEA840501D9A5F12005D6F8008007FAB7
:1003A00005FC28EA0C0803FA05F548EA0508C6F832
:1003B00000804D68ED0070D53E4DAE6946F00106F7
:1003C000AE61AD6924F0030605F0010500953A4DD4
:1003D00006EB050CDCF80850A607360F07FA06F8FE
:1003E00025EA0805DFF8D480404503D14FF0000826
:1003F00025E052E0DFF8C880404502D14FF0010807
:100400001DE0DFF8C080404502D14FF0020816E041
:10041000DFF8B480404502D14FF003080FE0DFF869
:10042000AC80404502D14FF0040808E0DFF8A0801E
:10043000404502D14FF0050801E04FF0060808FAE8
:1004400006F848EA0508CCF808804D68D9F800603D
:10045000ED024D4601D5164300E096432E604D68EF
:10046000DAF80060AD02554601D5164300E0964328
:100470002E604D68DBF80060AD035D4601D5164384
:1004800000E096432E604D68DEF80060ED0375468F
:1004900001D5164300E096432E60641C0A68164698
:1004A000E2407FF429AFBDE8F88F00000804014066
:1004B000000011100010024000000140000801403F
:1004C000000C0140001001400014014000180140E0
:1004D000001C01400AB1016170470904FBE70000FC
:1004E00001488068704700000800002002488168C9
:1004F000027811448160704708000020074810B559
:10050000016841F010010160032000F075F80F2030
:1005100000F006F800F024F8002010BD0020024092
:1005200070B50D4D04464FF47A712878B1FBF0F0A8
:100530000A490968B1FBF0F000F0BCFA48B9102C88
:1005400007D200222146501E00F036F800206C60D1
:1005500070BD012070BD00000800002014000020C4
:100560000C4808B5816941F001018161816901F0A0
:1005700001010091C16941F08051C161C06900F081
:10058000805000900448416821F0E06141F0007122
:10059000416008BD0010024000000140002809DB56
:1005A00000F01F02012191404009800000F1E0208D
:1005B000C0F8001170470000F0B40E4B1B680C46E9
:1005C000C3F30223C3F10705042D00D90425191D27
:1005D000072901D2002300E0DB1E012606FA05F1FF
:1005E000491E214099409E40761E16403143F0BC82
:1005F00001F0E6B80CED00E0064900F007020868DB
:100600004FF6FF03184040EA0220034A10430860F7
:10061000704700000CED00E00000FA052DE9F047FE
:100620000F46050061D0434E306800F00700B84225
:1006300009D2306820F0070038433060306800F09D
:100640000700B84251D128683B4C810712D54007BA
:1006500003D5606840F4E06060602878000703D547
:10066000606840F4605060606068A96820F0F00045
:10067000084360602878C00728D06868012810D037
:100680002168022810D0890700292EDA616821F03C
:10069000030101436160FFF723FF804641F288397F
:1006A0000DE021688903EFE78901EDE7FFF718FF07
:1006B000A0EB0801494502D90320BDE8F087606836
:1006C000696800F00C00B0EB810FEFD1306800F0EA
:1006D0000700B8420BD9306820F00700384330607B
:1006E000306800F00700B84201D00120E5E7287823
:1006F000400705D56068E96820F4E0600843606061
:100700002878000706D56068296920F4605040EA1F
:10071000C100606000F018F86168084AC1F3031175
:10072000515CC8400649086006480068FFF7F8FEBB
:100730000020C2E700200240001002407E1C00089A
:10074000140000200C0000200E4A51680E4801F0F1
:100750000C03042B11D0082B0FD10C48C1F3834399
:10076000C903C05C0AD55168084AC1F34041921ED2
:10077000515C054A5043B0FBF1F0704704494843CF
:10078000704700000010024000127A006E1C000842
:1007900000093D002DE9F84F040070D02078C04DCD
:1007A000C00749D06868C0F38100012807D0686895
:1007B000C0F38100022809D16868C00306D5286803
:1007C000800339D560680028E7D035E06068B0F56F
:1007D000803F0BD010B1B0F5A02F11D0286820F4C5
:1007E00080302860286820F4802002E0286840F4E7
:1007F00080302860606890B1FFF772FE06460AE01C
:10080000286840F480202860F0E700BFFFF768FE0A
:10081000801B642873D828688003F7D50CE0FFF7A5
:100820005FFE064605E000BFFFF75AFE801B642806
:10083000F0D828688003F7D420789A4E80074FF0CC
:1008400001094FF0000839D5686810F00C0F07D087
:100850006868C0F38100022809D16868C00306D423
:100860002868800714D52069012808D110E0206984
:10087000B0B1C6F80090FFF733FE074605E00AE185
:10088000FFF72EFEC01B0228C4D828688007F7D5C2
:100890002868616920F0F80040EAC10028600DE096
:1008A000C6F80080FFF71CFE074604E0FFF718FEBD
:1008B000C01B022823D828688007F7D420780007B7
:1008C0002CD57948A169D9B1C0F80090FFF708FE8E
:1008D000074604E0FFF704FEC01B02280FD8686A31
:1008E0008007F7D571484FF4FA510068B0FBF1F07A
:1008F000009000BF0098411E0091FAD20EE080E007
:10090000C0F80080FFF7ECFD074604E0FFF7E8FDC4
:10091000C01B022875D8686A8007F7D42078400782
:1009200060D5E8690027C00008D4E86940F080502D
:10093000E861E869012700F0805000905C48016898
:10094000C90513D40168834641F480710160FFF743
:10095000C7FD824606E000BFFFF7C2FDA0EB0A001C
:1009600064284ED8DBF80000C005F5D5E068012802
:100970000AD008B1052813D0286A20F001002862A7
:10098000286A20F0040002E0286A40F00100286292
:10099000E06841F2883B98B1FFF7A2FD82460BE088
:1009A000286A40F004002862EEE700BFFFF798FDD8
:1009B000A0EB0A0159455AD8286A8007F6D50CE001
:1009C000FFF78EFD824605E0FFF78AFDA0EB0A01E6
:1009D00059454CD8286A8007F6D41FB1E86920F041
:1009E0008050E861E06988B36968C1F38101022938
:1009F00044D00228C6F8608004D0FFF771FD044699
:100A000038E034E0FFF76CFD074604E0FFF768FDCF
:100A1000C01B02282BD828688001F7D4206AB0F5C3
:100A2000803F05D16868A16820F400300843686001
:100A3000D4E908010843696821F474110843686027
:100A4000C6F86090FFF74CFD044606E025E000BFC5
:100A5000FFF746FD001B022809D828688001F7D55A
:100A60001BE000BFFFF73CFD001B022802D903205A
:100A7000BDE8F88F28688001F4D40EE00128F7D093
:100A80006868226A00F48031914204D1616A00F4FE
:100A90007010884201D00120EAE70020E8E700005A
:100AA0000010024000004242800442421400002034
:100AB0000070004010B5401EB0F1807F01D30120CE
:100AC00010BD4FF0E02460610F21601700F078FE48
:100AD0000020A06107202061002010BD70477047F2
:100AE00070B590F83C20012A2CD0012480F83C40BD
:100AF000022280F83D2003685A689D6822F0700643
:100B00000A6832435A60104B02689A420ED00F4B6B
:100B10009A420BD0B2F1804F08D00D4B9A4205D0CB
:100B20000C4B9A4202D00C4B9A4204D1496825F0F2
:100B300080031943916080F83D40002180F83C100B
:100B4000084670BD022070BD002C014000340140F9
:100B50000004004000080040000C004010B50400F4
:100B600003D094F83D0010B107E0012010BD002033
:100B700084F83C00204600F01FF8022084F83D0075
:100B8000211D206800F0D0FC012084F8460084F884
:100B90003E0084F83F0084F8400084F8410084F867
:100BA000420084F8430084F8440084F8450084F847
:100BB0003D00002010BD000008B501681048B1F1EB
:100BC000804F0BD00F4A914207D1C16941F0020119
:100BD000C161C06900F00200009008BDC16941F028
:100BE0000101C161C069002200F0010000900121F3
:100BF0001C20FFF7E1FCBDE808401C20FFF7CEBC3D
:100C0000001002400004004090F83D10012901D07E
:100C100001207047022180F83D100168CA6842F047
:100C20000102CA6000680E4988420ED00D49884210
:100C30000BD0B0F1804F08D00B49884205D00B494A
:100C4000884202D00A49884204D1816801F0070134
:100C5000062903D0016841F00101016000207047BE
:100C6000002C014000340140000400400008004016
:100C7000000C004070B5044690F83C0000250128A7
:100C800017D0012684F83C60022084F83D002068DB
:100C9000826822F0770222F47F428260086850283E
:100CA00038D00DDC20284FD005DC90B3102811D1AE
:100CB0004AE0022070BD302846D040280AD13BE0EF
:100CC00060282FD070280DD0B0F5805F03D0B0F52C
:100CD000005F12D0012584F83D60002084F83C00BC
:100CE000284670BDCB68D1E90121206800F06FFC77
:100CF0002068816841F0770109E0CB68D1E90121E2
:100D0000206800F064FC2068816841F480418160C3
:100D1000E1E719E0CA684968206800F02DFD50211C
:100D2000206806E0CA684968206800F036FD602146
:100D3000206800F056FCCEE7CA684968206800F0D9
:100D40001BFD40212068F4E7226801461046F0E7C9
:100D50002DE9F0410D46040003D094F83D0018B190
:100D600008E00120BDE8F081002084F83C00204626
:100D700000F040F8022084F83D002068816844F2C9
:100D8000070291438160211D206800F0CDFB22689D
:100D900090689169166A2B68AF69034340F203308B
:100DA000814341EA0721A868EF6908434FF6FC41F7
:100DB0008843E96840EA0720014328692F6A000157
:100DC00040EA0730084369686D6926F0220646EA62
:100DD0000515294393602268906154F8460B01621F
:100DE000012004F81F09E0752076E0762077A075D1
:100DF0000020B7E700B585B0002100910191029174
:100E0000039100680D49884216D10D48C16941F02F
:100E10000401C161C16901F004010491816941F0DB
:100E2000080181618069694600F008000490C020D3
:100E300000900448FFF752FA05B000BD00080040DA
:100E400000100240000C014070B590F83E6004466E
:100E500090F83F5090F8423090F84320022021B1A2
:100E600004290ED0012E1BD114E0012E18D1012B24
:100E700016D184F83E0084F8420001220021206847
:100E800020E0012D0CD1012A0AD184F83F0084F81A
:100E9000430014E0012D03D1012B01D1012A01D01F
:100EA000012070BD84F83E0084F83F0084F84200C1
:100EB00084F8430001220021206800F07BFB01221E
:100EC0000421206800F076FB2068016841F00101F0
:100ED0000160002070BD704770B50446006801696C
:100EE0004FF00005C943890715D4C168C943890774
:100EF00011D4E91E016101202077206880698007F4
:100F0000204602D0FFF7E7FF04E000F0BFF82046DC
:100F100000F051F9257720680169C943490717D4C2
:100F2000C168C943490713D46FF00401016102206D
:100F300020772068806910F4407F204602D0FFF7B8
:100F4000CAFF04E000F0A2F8204600F034F925774B
:100F500020680169C943090716D4C168C943090754
:100F600012D46FF008010161042020772068C06965
:100F70008007204602D0FFF7AEFF04E000F086F8BD
:100F8000204600F018F9257720680169C943C90691
:100F900017D4C168C943C90613D46FF010010161A9
:100FA000082020772068C06910F4407F204602D0D6
:100FB000FFF791FF04E000F069F8204600F0FBF82D
:100FC000257720680169C943C90708D1C168C943A9
:100FD000C90704D1891E0161204600F047F9206845
:100FE0000169C943090609D4C168C943090605D482
:100FF0006FF0800101612046FFF770FD20680169F4
:10100000C943490609D4C168C943490605D46FF0EC
:1010100040010161204600F03DF920680169C943A3
:1010200089060BD4C168C943890607D46FF0200133
:1010300001612046BDE87040FFF751BD70BD000062
:1010400000B585B0002100910191029103910068E3
:101050000B49884211D10B48816941F0040181613B
:101060008069694600F0040004904020009002204E
:10107000019003900448FFF731F905B000BD00006E
:10108000000400400010024000080140704770B5A5
:10109000044690F83C0000260D4601280FD00120A0
:1010A00084F83C006AB1042A1DD0082A2FD00C2AEB
:1010B0003FD00126002084F83C00304670BD02205D
:1010C00070BD206800F096FA2068816941F008013F
:1010D00081612068816921F0040181612068816952
:1010E0002A69114311E0206800F0B4FA2068816990
:1010F00041F4006181612068816921F4806181612E
:10110000206881692A6941EA02218161D2E7206869
:1011100000F0D6FA2068C16941F00801C161206879
:10112000C16921F00401C1612068C1692A691143C4
:1011300011E0206800F0F8FA2068C16941F400610C
:10114000C1612068C16921F48061C1612068C16901
:101150002A6941EA0221C161ACE710B5040003D05D
:1011600094F83D0010B107E0012010BD002084F884
:101170003C00204600F01EF8022084F83D00211DAE
:10118000206800F0D1F9012084F8460084F83E0080
:1011900084F83F0084F8400084F8410084F842005D
:1011A00084F8430084F8440084F8450084F83D0046
:1011B000002010BD7047704710B50446022249B1A7
:1011C00004290ED0082913D094F84100012816D024
:1011D000012010BD94F83E000128F9D184F83E208A
:1011E0000FE094F83F000128F2D184F83F2008E096
:1011F00094F840000128EBD184F8402001E084F805
:1012000041200122206800F0D5F913492068134AD3
:10121000884201D0904203D1436C43F400434364BD
:10122000206888420DD090420BD0B0F1804F08D09A
:101230000B49884205D00B49884202D00A498842AE
:1012400004D1816801F00701062903D0016841F04B
:1012500001010160002010BD002C0140003401405C
:101260000004004000080040000C0040064910B592
:10127000884207D1054B0A2204210D2000F0EEFA26
:101280000349086010BD00004C0000200000204110
:10129000000000207047FEE72DE9F04186B00024F1
:1012A00024480094019402940394816941F0200140
:1012B0008161816901F020010491816941F010018F
:1012C0008161816901F010010491816941F004019B
:1012D0008161816901F004010491816941F0080193
:1012E00081618069144F00F00800049000220421FD
:1012F0003846FFF7EFF8DFF84480002280214046AF
:10130000FFF7E8F8042001250226CDE90005CDE924
:10131000024669463846FEF7E1FF8020CDE9000528
:10132000CDE9024669464046FEF7D8FF06B0BDE863
:10133000F081000000100240001001400008014050
:1013400010B586B0002417480094019402940394C9
:1013500004944FF08041059401604FF4E151C0E9DD
:10136000011440F2E731C0E903148461FFF7F6FB92
:1013700008B1FEF7B0FF4FF480500090694609486D
:10138000FFF778FC08B1FEF7A6FF049404A905480E
:101390000594FFF7A5FB002801D0FEF79CFF06B0DF
:1013A00010BD00004C00002010B58EB00024079442
:1013B000089409940A940B941C2168460C94FEF737
:1013C00025FF1F481D4901604FF4E151C0E9011498
:1013D00040F2E731C0E903148461FFF7BFFB08B1B5
:1013E000FEF779FF4FF48050079007A91448FFF7E4
:1013F00041FC08B1FEF76FFF1148FFF7AEFE08B1E0
:10140000FEF769FF0B940BA90D480C94FFF768FBDE
:1014100008B1FEF760FF6020CDE9000402940022CD
:10142000694607480494FFF732FE08B1FEF753FF00
:101430000348FFF705FE0EB010BD00000004004099
:101440009400002010B58CB024216846FEF7DEFE23
:1014500000241648099414490A94C0E900144FF670
:10146000FF71C0E90241046184610320CDE90004F9
:101470000120CDE902040494CDE9054007946946B2
:101480000A480894FFF764FC08B1FEF724FF0994AA
:1014900009A906480A94FFF723FB002801D0FEF7AC
:1014A0001AFF0CB010BD000000080040DC00002056
:1014B000FEE7FEE770477047FFF718B830B58FB00A
:1014C00028216846FEF7A2FE14210AA8FEF79EFE18
:1014D00001210804CDE900100024029402250491A2
:1014E000CDE907504FF4E01009906846FFF752F934
:1014F00008B172B6FEE70F20CDE90A054FF480600F
:10150000CDE90C4002210AA80E94FFF787F80028C5
:1015100001D072B6FEE70FB030BD70470148FFF74B
:10152000DBBC00004C000020F0B502681C4B1D4DD8
:101530001D4E1E4F1E4C4FF0804C984209D0A042C9
:1015400007D0604505D0A84203D0B04201D0B842D0
:1015500004D122F0700E4A6842EA0E02984209D085
:10156000A04207D0604505D0A84203D0B04201D0C8
:10157000B84203D122F44075CA682A434D6922F06B
:1015800080022A4302608A68C2620A6882629842C4
:1015900001D0A04201D10969016301214161F0BD7F
:1015A000002C01400004004000080040000C0040F6
:1015B0000034014010B501F01F030121046A994075
:1015C0008C430462016A9A401143016210BD10B558
:1015D000846842EA032224F47F440A43224382605F
:1015E00010BD826822F070020A4342F00701816058
:1015F00070470000F0B5036A026A22F0010202623D
:1016000042688469124E24F073050C682C4323F061
:1016100002058B682B430D4DA84201D0B04205D185
:1016200023F00807CB683B4323F00403A84201D012
:10163000B04205D14D6922F4407215438A692A43AC
:1016400042608461496841630362F0BD002C01403F
:1016500000340140F0B5026A036A23F0100303620C
:10166000436884690D6824F4E64444EA05248D68DF
:1016700022F0200242EA05120F4D104EA84201D07E
:10168000B04206D1CF6822F0800242EA071222F06F
:101690004002A84201D0B04207D14D6923F4406313
:1016A00043EA85038D6943EA8503436084614968A1
:1016B00081630262F0BD0000002C01400034014053
:1016C000F0B5026A036A23F4807303624368C46955
:1016D00022F4007224F073050C68124E2C438D68BE
:1016E00042EA05220E4DA84201D0B04206D1CF6891
:1016F00022F4006242EA072222F48062A84201D06A
:10170000B04207D14D6923F4405343EA05138D6974
:1017100043EA05134360C4614968C1630262F0BDD6
:10172000002C01400034014030B5046A026A22F402
:10173000805202624268C3690D6823F4E64343EABB
:1017400005238D6824F4005444EA0534084DA8426A
:1017500002D0084DA84204D14D6922F4804242EAE9
:1017600085124260C36149680164046230BD0000B3
:10177000002C01400034014010B5036A046A24F0D3
:1017800001040462846924F0F00444EA021423F0A2
:101790000A020A438461026210BD10B5036A046A3A
:1017A00024F010040462846923F0A00324F470443C
:1017B00044EA023243EA01118261016210BDFEE790
:1017C0000907090E002804DB00F1E02080F800146E
:1017D000704700F00F0000F1E02080F8141D704702
:1017E0001CB5FEF78BFEFFF769FEFFF755FDFFF70F
:1017F000DBFDFFF727FEFFF7A3FD1048FFF704FA14
:1018000000210F48FFF7D8FC04210E48FFF71CFB0E
:10181000012204210C48FEF75DFE0C490C48CDE97D
:101820000001C2024FF07E530A490B4800F036F81F
:1018300003483C2102685163FCE700004C00002093
:1018400094000020DC0000200010014000007A44D9
:1018500000004843000020411800002070B54843B4
:1018600000FB02F41D46042000F01EF80646204648
:1018700000F018F90446304600F014F9214600F053
:1018800033F8294600F026F9034900F023F9BDE8B2
:10189000704000F0EBB800000000704230B5DDE9A8
:1018A000034580E83E0030BD0021022807D0032810
:1018B0000BD004280BD005280BD0002070474FF028
:1018C0008042506A516200B27047044A02E0044A02
:1018D00000E0044A1068116000B270472404004020
:1018E00024080040240C00404FF47F0C1CEAD01266
:1018F0001EBF1CEAD11392EA0C0F93EA0C0F00F002
:10190000858090EA010F48BF42F4807240F4000CD9
:1019100041F400002CF07F4120F07F4000B581426F
:10192000A2EB03020FF2081CACEB504EC0F100001A
:101930009EF800E04FEA4E0E00FB0EFC38BF490057
:101940004FEA2C1C02F5FA020CFB0EF34FEACE1EF6
:101950004FEA112C4FEAC1210EEB635E42EB2242AB
:101960000EFB0CFC4FEA1C5300FB03114FEA112C39
:101970004FEA01310EFB0CFC4FEADC4C00FB0C1172
:10198000C14228BF09184CEB03335DF804EB10EBA0
:10199000410143EBC250B2F57C0F38BF704729D5E7
:1019A00012F0F00F1CBF00F1C04000F00040704783
:1019B000008182838485868788898B8C8D8E8F9128
:1019C0009293959697999A9C9D9FA0A2A3A5A7A84C
:1019D000AAACAEB0B2B3B5B7B9BCBEC0C2C5C7C978
:1019E000CCCED1D4D7D9DCDFE2E6E9ECF0F3F7FADC
:1019F000FE0000004FEA400C0CF1807CBCF17E4FF1
:101A000028BF7047B0F1C04000F02BB990EA010F39
:101A10000CEAD11348BF42F48072624538BF634577
:101A200007D213F47F0F16D080EA010000F00040C7
:101A3000704710B500F0CFF8097EFC3E00F005B805
:101A400080EA010000F00040704780EA010000F0E9
:101A5000004000F006B912F47F0F04BF024870473F
:101A600080EA010000F0FDB80000C07F41000B0ECD
:101A7000D3F19E0208D950F400034FEA032323FA5E
:101A800002F048BF4042704710B500F0A4F800BF14
:101A900049922480002070476FF0004282EA2000C3
:101AA0007047000010F0004148BF4042B0FA80F398
:101AB00010FA03F2C3F19D030BD051EAC35101EBBD
:101AC0001220530638BF704700F1010008BF20F014
:101AD000010070474FF47F0C1CEAD0121EBF1CEAB5
:101AE000D11392EA0C0F93EA0C0F00F0478090EAB2
:101AF000010F48BF42F480724FF0004C4CEA0020C6
:101B00004CEA012102EB0302A0FB0113A2F5000243
:101B1000002918BF43F001035B0028BF4FEA3303DD
:101B200042EB22425FEA132C4CEBC2502EBFBCEBBF
:101B3000436FB2F57C0F70474FEA036CBCF1004F66
:101B400008BF20F00100B2F57C0F38BF70470BD5FD
:101B500082F0FF0212F5803FC8BF704700F1C0401D
:101B6000D8BF00F00040704700F5000C5FEA4C0C55
:101B700048BF7047B0F1C04000F073B890EA010F61
:101B80000CEAD11348BF42F48072624538BF634506
:101B900004D280EA010000F00040704710B500F068
:101BA0001AF800BF8900013E00F007B800F009B83C
:101BB0005FEA410C5FEA1C6C08D080EA010000F08B
:101BC00050B85FEA400C5FEA1C6CF6D14FF0004061
:101BD000A0F5800070470EF1020E2EF0030E5EF8A5
:101BE000044B244204D44FEA4102B2F17F4F11D892
:101BF0004FEA4003B3F17F4F0CD80ED14FEAD07CAF
:101C0000B2F17F4F0CEB4C0C0CF1020C08BF4CEB0B
:101C1000D17C04E04FF0080C01E04FEAD17C0CEBE2
:101C20004C0324FA03F404F00704B4F1040C06D2C4
:101C30000EEB840CBDE810404CF0010C6047DFE86F
:101C40000CF0070802024FF00040A0F5800010BD24
:101C50000846420018BFD2F1807288BF00F00040F1
:101C600010BDFF2141EAD050C005704701020203B8
:101C70000405060708090A0B0C0D0E0F10100000D2
:101C8000000000000000010203040607080900002C
:101C9000B01C000800000020180000006C010008C3
:101CA000C81C000818000020700700008801000808
:101CB0000000000000000000010000001000000013
:081CC000000000000024F40004
:0400000508000131BD
:00000001FF
